{
  "contractName": "Election",
  "abi": [
    {
      "inputs": [
        {
          "internalType": "string",
          "name": "_name",
          "type": "string"
        },
        {
          "internalType": "uint256",
          "name": "_startTime",
          "type": "uint256"
        },
        {
          "internalType": "uint256",
          "name": "_endTime",
          "type": "uint256"
        }
      ],
      "payable": false,
      "stateMutability": "nonpayable",
      "type": "constructor"
    },
    {
      "anonymous": false,
      "inputs": [
        {
          "indexed": false,
          "internalType": "uint256",
          "name": "candidateId",
          "type": "uint256"
        },
        {
          "indexed": false,
          "internalType": "string",
          "name": "candidateName",
          "type": "string"
        },
        {
          "indexed": false,
          "internalType": "uint256",
          "name": "partyId",
          "type": "uint256"
        },
        {
          "indexed": false,
          "internalType": "uint256",
          "name": "candidateVoteCount",
          "type": "uint256"
        },
        {
          "indexed": false,
          "internalType": "string",
          "name": "uri",
          "type": "string"
        }
      ],
      "name": "NewCandidateAdded",
      "type": "event"
    },
    {
      "constant": true,
      "inputs": [],
      "name": "candidateCount",
      "outputs": [
        {
          "internalType": "uint256",
          "name": "",
          "type": "uint256"
        }
      ],
      "payable": false,
      "stateMutability": "view",
      "type": "function"
    },
    {
      "constant": true,
      "inputs": [
        {
          "internalType": "uint256",
          "name": "",
          "type": "uint256"
        }
      ],
      "name": "candidates",
      "outputs": [
        {
          "internalType": "uint256",
          "name": "candidateId",
          "type": "uint256"
        },
        {
          "internalType": "string",
          "name": "candidateName",
          "type": "string"
        },
        {
          "internalType": "uint256",
          "name": "partyId",
          "type": "uint256"
        },
        {
          "internalType": "uint256",
          "name": "candidateVoteCount",
          "type": "uint256"
        },
        {
          "internalType": "string",
          "name": "uri",
          "type": "string"
        }
      ],
      "payable": false,
      "stateMutability": "view",
      "type": "function"
    },
    {
      "constant": true,
      "inputs": [],
      "name": "electionName",
      "outputs": [
        {
          "internalType": "string",
          "name": "",
          "type": "string"
        }
      ],
      "payable": false,
      "stateMutability": "view",
      "type": "function"
    },
    {
      "constant": true,
      "inputs": [],
      "name": "endTime",
      "outputs": [
        {
          "internalType": "uint256",
          "name": "",
          "type": "uint256"
        }
      ],
      "payable": false,
      "stateMutability": "view",
      "type": "function"
    },
    {
      "constant": true,
      "inputs": [],
      "name": "owner",
      "outputs": [
        {
          "internalType": "address",
          "name": "",
          "type": "address"
        }
      ],
      "payable": false,
      "stateMutability": "view",
      "type": "function"
    },
    {
      "constant": true,
      "inputs": [],
      "name": "startTime",
      "outputs": [
        {
          "internalType": "uint256",
          "name": "",
          "type": "uint256"
        }
      ],
      "payable": false,
      "stateMutability": "view",
      "type": "function"
    },
    {
      "constant": true,
      "inputs": [],
      "name": "voteCount",
      "outputs": [
        {
          "internalType": "uint256",
          "name": "",
          "type": "uint256"
        }
      ],
      "payable": false,
      "stateMutability": "view",
      "type": "function"
    },
    {
      "constant": true,
      "inputs": [
        {
          "internalType": "address",
          "name": "",
          "type": "address"
        }
      ],
      "name": "voters",
      "outputs": [
        {
          "internalType": "address",
          "name": "voterId",
          "type": "address"
        },
        {
          "internalType": "bool",
          "name": "authorized",
          "type": "bool"
        },
        {
          "internalType": "uint256",
          "name": "vote",
          "type": "uint256"
        },
        {
          "internalType": "bool",
          "name": "voted",
          "type": "bool"
        }
      ],
      "payable": false,
      "stateMutability": "view",
      "type": "function"
    },
    {
      "constant": false,
      "inputs": [
        {
          "internalType": "address",
          "name": "_newOwner",
          "type": "address"
        }
      ],
      "name": "changeOwner",
      "outputs": [],
      "payable": false,
      "stateMutability": "nonpayable",
      "type": "function"
    },
    {
      "constant": false,
      "inputs": [
        {
          "internalType": "string",
          "name": "_candidateName",
          "type": "string"
        },
        {
          "internalType": "uint256",
          "name": "_partyId",
          "type": "uint256"
        },
        {
          "internalType": "string",
          "name": "_uri",
          "type": "string"
        }
      ],
      "name": "addCandidates",
      "outputs": [],
      "payable": false,
      "stateMutability": "nonpayable",
      "type": "function"
    },
    {
      "constant": false,
      "inputs": [
        {
          "internalType": "address",
          "name": "_voter",
          "type": "address"
        }
      ],
      "name": "approveVoters",
      "outputs": [],
      "payable": false,
      "stateMutability": "nonpayable",
      "type": "function"
    },
    {
      "constant": false,
      "inputs": [
        {
          "internalType": "uint256",
          "name": "_candidateId",
          "type": "uint256"
        }
      ],
      "name": "vote",
      "outputs": [],
      "payable": false,
      "stateMutability": "nonpayable",
      "type": "function"
    },
    {
      "constant": true,
      "inputs": [],
      "name": "checkResults",
      "outputs": [
        {
          "internalType": "uint256",
          "name": "winningCandidateId",
          "type": "uint256"
        }
      ],
      "payable": false,
      "stateMutability": "view",
      "type": "function"
    }
  ],
  "bytecode": "0x608060405260006002553480156200001657600080fd5b506040516200117038038062001170833981810160405260608110156200003c57600080fd5b81019080805160405193929190846401000000008211156200005d57600080fd5b838201915060208201858111156200007457600080fd5b82518660018202830111640100000000821117156200009257600080fd5b8083526020830192505050908051906020019080838360005b83811015620000c8578082015181840152602081019050620000ab565b50505050905090810190601f168015620000f65780820380516001836020036101000a031916815260200191505b506040526020018051906020019092919080519060200190929190505050336000806101000a81548173ffffffffffffffffffffffffffffffffffffffff021916908373ffffffffffffffffffffffffffffffffffffffff160217905550816004819055508060058190555082600190805190602001906200017a92919062000184565b5050505062000233565b828054600181600116156101000203166002900490600052602060002090601f016020900481019282601f10620001c757805160ff1916838001178555620001f8565b82800160010185558215620001f8579182015b82811115620001f7578251825591602001919060010190620001da565b5b5090506200020791906200020b565b5090565b6200023091905b808211156200022c57600081600090555060010162000212565b5090565b90565b610f2d80620002436000396000f3fe608060405234801561001057600080fd5b50600436106100cf5760003560e01c8063a3ec138d1161008c578063c638407111610066578063c638407114610436578063dac8fa2a14610454578063dca5633b146105b0578063f54603bf146105ce576100cf565b8063a3ec138d14610333578063a6f9dae1146103d4578063a9a981a314610418576100cf565b80630121b93f146100d45780633197cbb6146101025780633477ee2e1461012057806378e979251461024857806385e8e7a7146102665780638da5cb5b146102e9575b600080fd5b610100600480360360208110156100ea57600080fd5b8101908080359060200190929190505050610612565b005b61010a6106ee565b6040518082815260200191505060405180910390f35b61014c6004803603602081101561013657600080fd5b81019080803590602001909291905050506106f4565b604051808681526020018060200185815260200184815260200180602001838103835287818151815260200191508051906020019080838360005b838110156101a2578082015181840152602081019050610187565b50505050905090810190601f1680156101cf5780820380516001836020036101000a031916815260200191505b50838103825284818151815260200191508051906020019080838360005b838110156102085780820151818401526020810190506101ed565b50505050905090810190601f1680156102355780820380516001836020036101000a031916815260200191505b5097505050505050505060405180910390f35b61025061085a565b6040518082815260200191505060405180910390f35b61026e610860565b6040518080602001828103825283818151815260200191508051906020019080838360005b838110156102ae578082015181840152602081019050610293565b50505050905090810190601f1680156102db5780820380516001836020036101000a031916815260200191505b509250505060405180910390f35b6102f16108fe565b604051808273ffffffffffffffffffffffffffffffffffffffff1673ffffffffffffffffffffffffffffffffffffffff16815260200191505060405180910390f35b6103756004803603602081101561034957600080fd5b81019080803573ffffffffffffffffffffffffffffffffffffffff169060200190929190505050610923565b604051808573ffffffffffffffffffffffffffffffffffffffff1673ffffffffffffffffffffffffffffffffffffffff168152602001841515151581526020018381526020018215151515815260200194505050505060405180910390f35b610416600480360360208110156103ea57600080fd5b81019080803573ffffffffffffffffffffffffffffffffffffffff16906020019092919050505061098d565b005b610420610a29565b6040518082815260200191505060405180910390f35b61043e610a2f565b6040518082815260200191505060405180910390f35b6105ae6004803603606081101561046a57600080fd5b810190808035906020019064010000000081111561048757600080fd5b82018360208201111561049957600080fd5b803590602001918460018302840111640100000000831117156104bb57600080fd5b91908080601f016020809104026020016040519081016040528093929190818152602001838380828437600081840152601f19601f820116905080830192505050505050509192919290803590602001909291908035906020019064010000000081111561052857600080fd5b82018360208201111561053a57600080fd5b8035906020019184600183028401116401000000008311171561055c57600080fd5b91908080601f016020809104026020016040519081016040528093929190818152602001838380828437600081840152601f19601f820116905080830192505050505050509192919290505050610a35565b005b6105b8610c7e565b6040518082815260200191505060405180910390f35b610610600480360360208110156105e457600080fd5b81019080803573ffffffffffffffffffffffffffffffffffffffff169060200190929190505050610ce2565b005b6000600760003373ffffffffffffffffffffffffffffffffffffffff1673ffffffffffffffffffffffffffffffffffffffff16815260200190815260200160002090508060020160009054906101000a900460ff161561067157600080fd5b8060000160149054906101000a900460ff1661068c57600080fd5b818160010181905550600660008381526020019081526020016000206003016000815480929190600101919050555060036000815480929190600101919050555060018160020160006101000a81548160ff0219169083151502179055505050565b60055481565b6006602052806000526040600020600091509050806000015490806001018054600181600116156101000203166002900480601f0160208091040260200160405190810160405280929190818152602001828054600181600116156101000203166002900480156107a65780601f1061077b576101008083540402835291602001916107a6565b820191906000526020600020905b81548152906001019060200180831161078957829003601f168201915b505050505090806002015490806003015490806004018054600181600116156101000203166002900480601f0160208091040260200160405190810160405280929190818152602001828054600181600116156101000203166002900480156108505780601f1061082557610100808354040283529160200191610850565b820191906000526020600020905b81548152906001019060200180831161083357829003601f168201915b5050505050905085565b60045481565b60018054600181600116156101000203166002900480601f0160208091040260200160405190810160405280929190818152602001828054600181600116156101000203166002900480156108f65780601f106108cb576101008083540402835291602001916108f6565b820191906000526020600020905b8154815290600101906020018083116108d957829003601f168201915b505050505081565b6000809054906101000a900473ffffffffffffffffffffffffffffffffffffffff1681565b60076020528060005260406000206000915090508060000160009054906101000a900473ffffffffffffffffffffffffffffffffffffffff16908060000160149054906101000a900460ff16908060010154908060020160009054906101000a900460ff16905084565b6000809054906101000a900473ffffffffffffffffffffffffffffffffffffffff1673ffffffffffffffffffffffffffffffffffffffff163373ffffffffffffffffffffffffffffffffffffffff16146109e657600080fd5b806000806101000a81548173ffffffffffffffffffffffffffffffffffffffff021916908373ffffffffffffffffffffffffffffffffffffffff16021790555050565b60025481565b60035481565b6000809054906101000a900473ffffffffffffffffffffffffffffffffffffffff1673ffffffffffffffffffffffffffffffffffffffff163373ffffffffffffffffffffffffffffffffffffffff1614610a8e57600080fd5b6005835111610a9c57600080fd5b60008211610aa957600080fd5b6002600081548092919060010191905055506040518060a0016040528060025481526020018481526020018381526020016000815260200182815250600660006002548152602001908152602001600020600082015181600001556020820151816001019080519060200190610b20929190610e53565b5060408201518160020155606082015181600301556080820151816004019080519060200190610b51929190610e53565b509050507f726a91efdd2d0123829e8af6427e48d78d66f125b775d28b4cd48e193afc02d26002548484600085604051808681526020018060200185815260200184815260200180602001838103835287818151815260200191508051906020019080838360005b83811015610bd4578082015181840152602081019050610bb9565b50505050905090810190601f168015610c015780820380516001836020036101000a031916815260200191505b50838103825284818151815260200191508051906020019080838360005b83811015610c3a578082015181840152602081019050610c1f565b50505050905090810190601f168015610c675780820380516001836020036101000a031916815260200191505b5097505050505050505060405180910390a1505050565b600080600090506000600190505b6002548111610cdd578160066000838152602001908152602001600020600301541115610cd057600660008281526020019081526020016000206003015491508092505b8080600101915050610c8c565b505090565b6000809054906101000a900473ffffffffffffffffffffffffffffffffffffffff1673ffffffffffffffffffffffffffffffffffffffff163373ffffffffffffffffffffffffffffffffffffffff1614610d3b57600080fd5b600760008273ffffffffffffffffffffffffffffffffffffffff1673ffffffffffffffffffffffffffffffffffffffff16815260200190815260200160002060000160149054906101000a900460ff1615610d9557600080fd5b60001515600760008373ffffffffffffffffffffffffffffffffffffffff1673ffffffffffffffffffffffffffffffffffffffff16815260200190815260200160002060000160149054906101000a900460ff16151514610df557600080fd5b6001600760008373ffffffffffffffffffffffffffffffffffffffff1673ffffffffffffffffffffffffffffffffffffffff16815260200190815260200160002060000160146101000a81548160ff02191690831515021790555050565b828054600181600116156101000203166002900490600052602060002090601f016020900481019282601f10610e9457805160ff1916838001178555610ec2565b82800160010185558215610ec2579182015b82811115610ec1578251825591602001919060010190610ea6565b5b509050610ecf9190610ed3565b5090565b610ef591905b80821115610ef1576000816000905550600101610ed9565b5090565b9056fea265627a7a72315820e96b54b022861c122f57d53ba931a525f2c7d75db1619e84e8d7d89770d619f664736f6c63430005100032",
  "source": "pragma solidity >=0.4.21 <0.7.0;\n\ncontract Election {\n\taddress public owner; \n\tstring public electionName;\n\tuint public candidateCount = 0;\n\tuint public voteCount;\n\tuint public startTime;\n\tuint public endTime;\n\n\tconstructor(string memory _name, uint _startTime, uint _endTime) public {\n\t\towner = msg.sender;\n\t\tstartTime = _startTime;\n\t\tendTime = _endTime;\n\t\telectionName = _name;\n\t}\n\n\tmapping (uint => Candidate) public candidates;\n\tmapping (address => Voter) public voters;\n\n\tstruct Candidate {\n\t\tuint candidateId;\n\t\tstring candidateName;\n\t\tuint partyId;\n\t\tuint candidateVoteCount;\n\t\tstring uri;\n\t}\n\n\tevent NewCandidateAdded (\n\t\tuint candidateId,\n\t\tstring candidateName,\n\t\tuint partyId,\n\t\tuint candidateVoteCount,\n\t\tstring uri\n\t);\n\n\tstruct Voter {\n\t\taddress voterId;\n\t\tbool authorized;\n\t\tuint vote;\n\t\tbool voted;\t\t\n\t}\n\n\tmodifier ownerOnly () {\n\t\trequire(msg.sender == owner);\n\t\t_;\n\t}\n\n\tmodifier onlyBefore(uint _time) {\n\t\trequire(now  < _time);\n\t\t_;\n\t}\n\n\tmodifier onlyAfter(uint _time) {\n\t\trequire(now > _time);\n\t\t_;\n\t}\n\n\tfunction changeOwner(address _newOwner) public ownerOnly {\n\t\towner = _newOwner;\n\t}\n\n\tfunction addCandidates(\n\t\tstring memory _candidateName, \n\t\tuint _partyId, \n\t\tstring memory _uri\n\t\t) public \n\t\t// onlyBefore(startTime) \n\t\townerOnly  {\n\n\t\trequire(bytes(_candidateName).length > 5);\n\t\trequire(_partyId > 0);\n\t\tcandidateCount++;\n\t\tcandidates[candidateCount] = Candidate(candidateCount, _candidateName, _partyId, 0, _uri);\n\t\temit NewCandidateAdded(candidateCount, _candidateName, _partyId, 0, _uri);\n\t}\n\n\tfunction approveVoters(address _voter) \n\t\tpublic \n\t\t// onlyBefore(startTime) \n\t\townerOnly {\n\t\t\t\n\t\trequire(!voters[_voter].authorized);\n\t\trequire (voters[_voter].authorized == false);\n\t\tvoters[_voter].authorized = true;\n\t}\n\n\tfunction vote(uint _candidateId) public {\n\t\t// require(startTime <= now, \"Election has not started yet.\");\n\t\t// require(endTime > now, \"Election is over.\");\n\n\t\tVoter storage _voter = voters[msg.sender];\n\n\t\trequire(!_voter.voted);\n\t\trequire(_voter.authorized);\n\n\t\t_voter.vote = _candidateId;\n\t\tcandidates[_candidateId].candidateVoteCount++;\n\t\tvoteCount++;\n\t\t_voter.voted = true;\n\t}\n\n\tfunction checkResults() public view \n\t// onlyAfter(endTime) \n\treturns (uint winningCandidateId) {\n\t\t\n\t\tuint highestVoteCount = 0;\n\t\tfor(uint i = 1; i <= candidateCount; i++) {\n\t\t\tif (candidates[i].candidateVoteCount > highestVoteCount) {\n\t\t\t\thighestVoteCount = candidates[i].candidateVoteCount;\n\t\t\t\twinningCandidateId = i;\n\t\t\t}\n\t\t}\n\t}\n}",
  "sourcePath": "/home/lilixac/Workspace/Ethereum/nepalvotes/contracts/Election.sol",
  "compiler": {
    "name": "solc",
    "version": "0.5.16+commit.9c3226ce.Emscripten.clang"
  },
  "schemaVersion": "3.4.0",
  "updatedAt": "2021-05-07T02:41:05.740Z",
  "networkType": "ethereum",
  "devdoc": {
    "methods": {}
  },
  "userdoc": {
    "methods": {}
  }
}